{
  "_format": "hh-sol-artifact-1",
  "contractName": "CustomMint",
  "sourceName": "contracts/CustomMint.sol",
  "abi": [
    {
      "inputs": [],
      "stateMutability": "nonpayable",
      "type": "constructor"
    },
    {
      "anonymous": false,
      "inputs": [
        {
          "indexed": true,
          "internalType": "address",
          "name": "owner",
          "type": "address"
        },
        {
          "indexed": true,
          "internalType": "address",
          "name": "approved",
          "type": "address"
        },
        {
          "indexed": true,
          "internalType": "uint256",
          "name": "tokenId",
          "type": "uint256"
        }
      ],
      "name": "Approval",
      "type": "event"
    },
    {
      "anonymous": false,
      "inputs": [
        {
          "indexed": true,
          "internalType": "address",
          "name": "owner",
          "type": "address"
        },
        {
          "indexed": true,
          "internalType": "address",
          "name": "operator",
          "type": "address"
        },
        {
          "indexed": false,
          "internalType": "bool",
          "name": "approved",
          "type": "bool"
        }
      ],
      "name": "ApprovalForAll",
      "type": "event"
    },
    {
      "anonymous": false,
      "inputs": [
        {
          "indexed": true,
          "internalType": "address",
          "name": "previousOwner",
          "type": "address"
        },
        {
          "indexed": true,
          "internalType": "address",
          "name": "newOwner",
          "type": "address"
        }
      ],
      "name": "OwnershipTransferred",
      "type": "event"
    },
    {
      "anonymous": false,
      "inputs": [
        {
          "indexed": true,
          "internalType": "address",
          "name": "from",
          "type": "address"
        },
        {
          "indexed": true,
          "internalType": "address",
          "name": "to",
          "type": "address"
        },
        {
          "indexed": true,
          "internalType": "uint256",
          "name": "tokenId",
          "type": "uint256"
        }
      ],
      "name": "Transfer",
      "type": "event"
    },
    {
      "inputs": [
        {
          "internalType": "address",
          "name": "to",
          "type": "address"
        },
        {
          "internalType": "uint256",
          "name": "tokenId",
          "type": "uint256"
        }
      ],
      "name": "approve",
      "outputs": [],
      "stateMutability": "nonpayable",
      "type": "function"
    },
    {
      "inputs": [
        {
          "internalType": "address",
          "name": "owner",
          "type": "address"
        }
      ],
      "name": "balanceOf",
      "outputs": [
        {
          "internalType": "uint256",
          "name": "",
          "type": "uint256"
        }
      ],
      "stateMutability": "view",
      "type": "function"
    },
    {
      "inputs": [
        {
          "internalType": "uint256",
          "name": "tokenId",
          "type": "uint256"
        }
      ],
      "name": "getApproved",
      "outputs": [
        {
          "internalType": "address",
          "name": "",
          "type": "address"
        }
      ],
      "stateMutability": "view",
      "type": "function"
    },
    {
      "inputs": [
        {
          "internalType": "address",
          "name": "owner",
          "type": "address"
        },
        {
          "internalType": "address",
          "name": "operator",
          "type": "address"
        }
      ],
      "name": "isApprovedForAll",
      "outputs": [
        {
          "internalType": "bool",
          "name": "",
          "type": "bool"
        }
      ],
      "stateMutability": "view",
      "type": "function"
    },
    {
      "inputs": [],
      "name": "maxSupply",
      "outputs": [
        {
          "internalType": "uint256",
          "name": "",
          "type": "uint256"
        }
      ],
      "stateMutability": "view",
      "type": "function"
    },
    {
      "inputs": [],
      "name": "name",
      "outputs": [
        {
          "internalType": "string",
          "name": "",
          "type": "string"
        }
      ],
      "stateMutability": "view",
      "type": "function"
    },
    {
      "inputs": [],
      "name": "owner",
      "outputs": [
        {
          "internalType": "address",
          "name": "",
          "type": "address"
        }
      ],
      "stateMutability": "view",
      "type": "function"
    },
    {
      "inputs": [
        {
          "internalType": "uint256",
          "name": "tokenId",
          "type": "uint256"
        }
      ],
      "name": "ownerOf",
      "outputs": [
        {
          "internalType": "address",
          "name": "",
          "type": "address"
        }
      ],
      "stateMutability": "view",
      "type": "function"
    },
    {
      "inputs": [],
      "name": "renounceOwnership",
      "outputs": [],
      "stateMutability": "nonpayable",
      "type": "function"
    },
    {
      "inputs": [
        {
          "internalType": "address",
          "name": "to",
          "type": "address"
        },
        {
          "internalType": "uint256",
          "name": "_tokenId",
          "type": "uint256"
        },
        {
          "internalType": "string",
          "name": "tokenURI_",
          "type": "string"
        }
      ],
      "name": "safeMint",
      "outputs": [
        {
          "internalType": "uint256",
          "name": "",
          "type": "uint256"
        }
      ],
      "stateMutability": "payable",
      "type": "function"
    },
    {
      "inputs": [
        {
          "internalType": "address",
          "name": "from",
          "type": "address"
        },
        {
          "internalType": "address",
          "name": "to",
          "type": "address"
        },
        {
          "internalType": "uint256",
          "name": "tokenId",
          "type": "uint256"
        }
      ],
      "name": "safeTransferFrom",
      "outputs": [],
      "stateMutability": "nonpayable",
      "type": "function"
    },
    {
      "inputs": [
        {
          "internalType": "address",
          "name": "from",
          "type": "address"
        },
        {
          "internalType": "address",
          "name": "to",
          "type": "address"
        },
        {
          "internalType": "uint256",
          "name": "tokenId",
          "type": "uint256"
        },
        {
          "internalType": "bytes",
          "name": "_data",
          "type": "bytes"
        }
      ],
      "name": "safeTransferFrom",
      "outputs": [],
      "stateMutability": "nonpayable",
      "type": "function"
    },
    {
      "inputs": [
        {
          "internalType": "address",
          "name": "operator",
          "type": "address"
        },
        {
          "internalType": "bool",
          "name": "approved",
          "type": "bool"
        }
      ],
      "name": "setApprovalForAll",
      "outputs": [],
      "stateMutability": "nonpayable",
      "type": "function"
    },
    {
      "inputs": [
        {
          "internalType": "string",
          "name": "baseURI_",
          "type": "string"
        }
      ],
      "name": "setBaseURI",
      "outputs": [],
      "stateMutability": "nonpayable",
      "type": "function"
    },
    {
      "inputs": [
        {
          "internalType": "uint256",
          "name": "_fee",
          "type": "uint256"
        }
      ],
      "name": "setMintFee",
      "outputs": [],
      "stateMutability": "nonpayable",
      "type": "function"
    },
    {
      "inputs": [
        {
          "internalType": "bytes4",
          "name": "interfaceId",
          "type": "bytes4"
        }
      ],
      "name": "supportsInterface",
      "outputs": [
        {
          "internalType": "bool",
          "name": "",
          "type": "bool"
        }
      ],
      "stateMutability": "view",
      "type": "function"
    },
    {
      "inputs": [],
      "name": "symbol",
      "outputs": [
        {
          "internalType": "string",
          "name": "",
          "type": "string"
        }
      ],
      "stateMutability": "view",
      "type": "function"
    },
    {
      "inputs": [
        {
          "internalType": "uint256",
          "name": "index",
          "type": "uint256"
        }
      ],
      "name": "tokenByIndex",
      "outputs": [
        {
          "internalType": "uint256",
          "name": "",
          "type": "uint256"
        }
      ],
      "stateMutability": "view",
      "type": "function"
    },
    {
      "inputs": [
        {
          "internalType": "address",
          "name": "owner",
          "type": "address"
        },
        {
          "internalType": "uint256",
          "name": "index",
          "type": "uint256"
        }
      ],
      "name": "tokenOfOwnerByIndex",
      "outputs": [
        {
          "internalType": "uint256",
          "name": "",
          "type": "uint256"
        }
      ],
      "stateMutability": "view",
      "type": "function"
    },
    {
      "inputs": [
        {
          "internalType": "uint256",
          "name": "tokenId",
          "type": "uint256"
        }
      ],
      "name": "tokenURI",
      "outputs": [
        {
          "internalType": "string",
          "name": "",
          "type": "string"
        }
      ],
      "stateMutability": "view",
      "type": "function"
    },
    {
      "inputs": [],
      "name": "totalSupply",
      "outputs": [
        {
          "internalType": "uint256",
          "name": "",
          "type": "uint256"
        }
      ],
      "stateMutability": "view",
      "type": "function"
    },
    {
      "inputs": [
        {
          "internalType": "address",
          "name": "from",
          "type": "address"
        },
        {
          "internalType": "address",
          "name": "to",
          "type": "address"
        },
        {
          "internalType": "uint256",
          "name": "tokenId",
          "type": "uint256"
        }
      ],
      "name": "transferFrom",
      "outputs": [],
      "stateMutability": "nonpayable",
      "type": "function"
    },
    {
      "inputs": [
        {
          "internalType": "address",
          "name": "newOwner",
          "type": "address"
        }
      ],
      "name": "transferOwnership",
      "outputs": [],
      "stateMutability": "nonpayable",
      "type": "function"
    },
    {
      "inputs": [],
      "name": "withdraw",
      "outputs": [],
      "stateMutability": "payable",
      "type": "function"
    }
  ],
  "bytecode": "0x608060405266038d7ea4c68000600e553480156200001c57600080fd5b506040518060400160405280600a81526020017f437573746f6d4d696e74000000000000000000000000000000000000000000008152506040518060400160405280600381526020017f434d5400000000000000000000000000000000000000000000000000000000008152508160009080519060200190620000a1929190620001b1565b508060019080519060200190620000ba929190620001b1565b505050620000dd620000d1620000e360201b60201c565b620000eb60201b60201c565b620002c6565b600033905090565b6000600a60009054906101000a900473ffffffffffffffffffffffffffffffffffffffff16905081600a60006101000a81548173ffffffffffffffffffffffffffffffffffffffff021916908373ffffffffffffffffffffffffffffffffffffffff1602179055508173ffffffffffffffffffffffffffffffffffffffff168173ffffffffffffffffffffffffffffffffffffffff167f8be0079c531659141344cd1fd0a4f28419497f9722a3daafe3b4186f6b6457e060405160405180910390a35050565b828054620001bf9062000261565b90600052602060002090601f016020900481019282620001e357600085556200022f565b82601f10620001fe57805160ff19168380011785556200022f565b828001600101855582156200022f579182015b828111156200022e57825182559160200191906001019062000211565b5b5090506200023e919062000242565b5090565b5b808211156200025d57600081600090555060010162000243565b5090565b600060028204905060018216806200027a57607f821691505b6020821081141562000291576200029062000297565b5b50919050565b7f4e487b7100000000000000000000000000000000000000000000000000000000600052602260045260246000fd5b613d1580620002d66000396000f3fe60806040526004361061014b5760003560e01c806370a08231116100b6578063c87b56dd1161006f578063c87b56dd14610481578063cd279c7c146104be578063d5abeb01146104ee578063e985e9c514610519578063eddd0d9c14610556578063f2fde38b1461057f5761014b565b806370a0823114610385578063715018a6146103c25780638da5cb5b146103d957806395d89b4114610404578063a22cb4651461042f578063b88d4fde146104585761014b565b80632f745c59116101085780632f745c59146102725780633ccfd60b146102af57806342842e0e146102b95780634f6ccce7146102e257806355f804b31461031f5780636352211e146103485761014b565b806301ffc9a71461015057806306fdde031461018d578063081812fc146101b8578063095ea7b3146101f557806318160ddd1461021e57806323b872dd14610249575b600080fd5b34801561015c57600080fd5b5061017760048036038101906101729190612acd565b6105a8565b6040516101849190612fc3565b60405180910390f35b34801561019957600080fd5b506101a26105ba565b6040516101af9190612fde565b60405180910390f35b3480156101c457600080fd5b506101df60048036038101906101da9190612b60565b61064c565b6040516101ec9190612f5c565b60405180910390f35b34801561020157600080fd5b5061021c60048036038101906102179190612a2a565b6106d1565b005b34801561022a57600080fd5b506102336107e9565b60405161024091906132a0565b60405180910390f35b34801561025557600080fd5b50610270600480360381019061026b9190612924565b6107f6565b005b34801561027e57600080fd5b5061029960048036038101906102949190612a2a565b610856565b6040516102a691906132a0565b60405180910390f35b6102b76108fb565b005b3480156102c557600080fd5b506102e060048036038101906102db9190612924565b6109cd565b005b3480156102ee57600080fd5b5061030960048036038101906103049190612b60565b6109ed565b60405161031691906132a0565b60405180910390f35b34801561032b57600080fd5b5061034660048036038101906103419190612b1f565b610a84565b005b34801561035457600080fd5b5061036f600480360381019061036a9190612b60565b610b1a565b60405161037c9190612f5c565b60405180910390f35b34801561039157600080fd5b506103ac60048036038101906103a791906128bf565b610bcc565b6040516103b991906132a0565b60405180910390f35b3480156103ce57600080fd5b506103d7610c84565b005b3480156103e557600080fd5b506103ee610d0c565b6040516103fb9190612f5c565b60405180910390f35b34801561041057600080fd5b50610419610d36565b6040516104269190612fde565b60405180910390f35b34801561043b57600080fd5b50610456600480360381019061045191906129ee565b610dc8565b005b34801561046457600080fd5b5061047f600480360381019061047a9190612973565b610dde565b005b34801561048d57600080fd5b506104a860048036038101906104a39190612b60565b610e40565b6040516104b59190612fde565b60405180910390f35b6104d860048036038101906104d39190612a66565b610fb3565b6040516104e591906132a0565b60405180910390f35b3480156104fa57600080fd5b5061050361107b565b60405161051091906132a0565b60405180910390f35b34801561052557600080fd5b50610540600480360381019061053b91906128e8565b611080565b60405161054d9190612fc3565b60405180910390f35b34801561056257600080fd5b5061057d60048036038101906105789190612b60565b611114565b005b34801561058b57600080fd5b506105a660048036038101906105a191906128bf565b61119a565b005b60006105b382611292565b9050919050565b6060600080546105c9906134f6565b80601f01602080910402602001604051908101604052809291908181526020018280546105f5906134f6565b80156106425780601f1061061757610100808354040283529160200191610642565b820191906000526020600020905b81548152906001019060200180831161062557829003601f168201915b5050505050905090565b60006106578261130c565b610696576040517f08c379a000000000000000000000000000000000000000000000000000000000815260040161068d906131c0565b60405180910390fd5b6004600083815260200190815260200160002060009054906101000a900473ffffffffffffffffffffffffffffffffffffffff169050919050565b60006106dc82610b1a565b90508073ffffffffffffffffffffffffffffffffffffffff168373ffffffffffffffffffffffffffffffffffffffff16141561074d576040517f08c379a000000000000000000000000000000000000000000000000000000000815260040161074490613240565b60405180910390fd5b8073ffffffffffffffffffffffffffffffffffffffff1661076c611378565b73ffffffffffffffffffffffffffffffffffffffff16148061079b575061079a81610795611378565b611080565b5b6107da576040517f08c379a00000000000000000000000000000000000000000000000000000000081526004016107d190613140565b60405180910390fd5b6107e48383611380565b505050565b6000600880549050905090565b610807610801611378565b82611439565b610846576040517f08c379a000000000000000000000000000000000000000000000000000000000815260040161083d90613260565b60405180910390fd5b610851838383611517565b505050565b600061086183610bcc565b82106108a2576040517f08c379a000000000000000000000000000000000000000000000000000000000815260040161089990613000565b60405180910390fd5b600660008473ffffffffffffffffffffffffffffffffffffffff1673ffffffffffffffffffffffffffffffffffffffff168152602001908152602001600020600083815260200190815260200160002054905092915050565b610903611378565b73ffffffffffffffffffffffffffffffffffffffff16610921610d0c565b73ffffffffffffffffffffffffffffffffffffffff1614610977576040517f08c379a000000000000000000000000000000000000000000000000000000000815260040161096e90613200565b60405180910390fd5b6000610981610d0c565b90508073ffffffffffffffffffffffffffffffffffffffff166108fc479081150290604051600060405180830381858888f193505050501580156109c9573d6000803e3d6000fd5b5050565b6109e883838360405180602001604052806000815250610dde565b505050565b60006109f76107e9565b8210610a38576040517f08c379a0000000000000000000000000000000000000000000000000000000008152600401610a2f90613280565b60405180910390fd5b60088281548110610a72577f4e487b7100000000000000000000000000000000000000000000000000000000600052603260045260246000fd5b90600052602060002001549050919050565b610a8c611378565b73ffffffffffffffffffffffffffffffffffffffff16610aaa610d0c565b73ffffffffffffffffffffffffffffffffffffffff1614610b00576040517f08c379a0000000000000000000000000000000000000000000000000000000008152600401610af790613200565b60405180910390fd5b80600d9080519060200190610b169291906126e3565b5050565b6000806002600084815260200190815260200160002060009054906101000a900473ffffffffffffffffffffffffffffffffffffffff169050600073ffffffffffffffffffffffffffffffffffffffff168173ffffffffffffffffffffffffffffffffffffffff161415610bc3576040517f08c379a0000000000000000000000000000000000000000000000000000000008152600401610bba90613180565b60405180910390fd5b80915050919050565b60008073ffffffffffffffffffffffffffffffffffffffff168273ffffffffffffffffffffffffffffffffffffffff161415610c3d576040517f08c379a0000000000000000000000000000000000000000000000000000000008152600401610c3490613160565b60405180910390fd5b600360008373ffffffffffffffffffffffffffffffffffffffff1673ffffffffffffffffffffffffffffffffffffffff168152602001908152602001600020549050919050565b610c8c611378565b73ffffffffffffffffffffffffffffffffffffffff16610caa610d0c565b73ffffffffffffffffffffffffffffffffffffffff1614610d00576040517f08c379a0000000000000000000000000000000000000000000000000000000008152600401610cf790613200565b60405180910390fd5b610d0a600061177e565b565b6000600a60009054906101000a900473ffffffffffffffffffffffffffffffffffffffff16905090565b606060018054610d45906134f6565b80601f0160208091040260200160405190810160405280929190818152602001828054610d71906134f6565b8015610dbe5780601f10610d9357610100808354040283529160200191610dbe565b820191906000526020600020905b815481529060010190602001808311610da157829003601f168201915b5050505050905090565b610dda610dd3611378565b8383611844565b5050565b610def610de9611378565b83611439565b610e2e576040517f08c379a0000000000000000000000000000000000000000000000000000000008152600401610e2590613260565b60405180910390fd5b610e3a848484846119b1565b50505050565b6060610e4b8261130c565b610e8a576040517f08c379a0000000000000000000000000000000000000000000000000000000008152600401610e8190613220565b60405180910390fd5b6000600c60008481526020019081526020016000208054610eaa906134f6565b80601f0160208091040260200160405190810160405280929190818152602001828054610ed6906134f6565b8015610f235780601f10610ef857610100808354040283529160200191610f23565b820191906000526020600020905b815481529060010190602001808311610f0657829003601f168201915b505050505090506000610f34611a0d565b9050600081511415610f4a578192505050610fae565b600082511115610f7f578082604051602001610f67929190612f38565b60405160208183030381529060405292505050610fae565b80610f8985611a9f565b604051602001610f9a929190612f38565b604051602081830303815290604052925050505b919050565b6000600e54341015610ffa576040517f08c379a0000000000000000000000000000000000000000000000000000000008152600401610ff190613100565b60405180910390fd5b60646110046107e9565b10611044576040517f08c379a000000000000000000000000000000000000000000000000000000000815260040161103b906130e0565b60405180910390fd5b6000611050600b611c4c565b905061105c600b611c5a565b6110668582611c70565b6110708484611c8e565b809150509392505050565b606481565b6000600560008473ffffffffffffffffffffffffffffffffffffffff1673ffffffffffffffffffffffffffffffffffffffff16815260200190815260200160002060008373ffffffffffffffffffffffffffffffffffffffff1673ffffffffffffffffffffffffffffffffffffffff16815260200190815260200160002060009054906101000a900460ff16905092915050565b61111c611378565b73ffffffffffffffffffffffffffffffffffffffff1661113a610d0c565b73ffffffffffffffffffffffffffffffffffffffff1614611190576040517f08c379a000000000000000000000000000000000000000000000000000000000815260040161118790613200565b60405180910390fd5b80600e8190555050565b6111a2611378565b73ffffffffffffffffffffffffffffffffffffffff166111c0610d0c565b73ffffffffffffffffffffffffffffffffffffffff1614611216576040517f08c379a000000000000000000000000000000000000000000000000000000000815260040161120d90613200565b60405180910390fd5b600073ffffffffffffffffffffffffffffffffffffffff168173ffffffffffffffffffffffffffffffffffffffff161415611286576040517f08c379a000000000000000000000000000000000000000000000000000000000815260040161127d90613040565b60405180910390fd5b61128f8161177e565b50565b60007f780e9d63000000000000000000000000000000000000000000000000000000007bffffffffffffffffffffffffffffffffffffffffffffffffffffffff1916827bffffffffffffffffffffffffffffffffffffffffffffffffffffffff19161480611305575061130482611d02565b5b9050919050565b60008073ffffffffffffffffffffffffffffffffffffffff166002600084815260200190815260200160002060009054906101000a900473ffffffffffffffffffffffffffffffffffffffff1673ffffffffffffffffffffffffffffffffffffffff1614159050919050565b600033905090565b816004600083815260200190815260200160002060006101000a81548173ffffffffffffffffffffffffffffffffffffffff021916908373ffffffffffffffffffffffffffffffffffffffff160217905550808273ffffffffffffffffffffffffffffffffffffffff166113f383610b1a565b73ffffffffffffffffffffffffffffffffffffffff167f8c5be1e5ebec7d5bd14f71427d1e84f3dd0314c0f7b2291e5b200ac8c7c3b92560405160405180910390a45050565b60006114448261130c565b611483576040517f08c379a000000000000000000000000000000000000000000000000000000000815260040161147a90613120565b60405180910390fd5b600061148e83610b1a565b90508073ffffffffffffffffffffffffffffffffffffffff168473ffffffffffffffffffffffffffffffffffffffff1614806114fd57508373ffffffffffffffffffffffffffffffffffffffff166114e58461064c565b73ffffffffffffffffffffffffffffffffffffffff16145b8061150e575061150d8185611080565b5b91505092915050565b8273ffffffffffffffffffffffffffffffffffffffff1661153782610b1a565b73ffffffffffffffffffffffffffffffffffffffff161461158d576040517f08c379a000000000000000000000000000000000000000000000000000000000815260040161158490613060565b60405180910390fd5b600073ffffffffffffffffffffffffffffffffffffffff168273ffffffffffffffffffffffffffffffffffffffff1614156115fd576040517f08c379a00000000000000000000000000000000000000000000000000000000081526004016115f4906130a0565b60405180910390fd5b611608838383611de4565b611613600082611380565b6001600360008573ffffffffffffffffffffffffffffffffffffffff1673ffffffffffffffffffffffffffffffffffffffff1681526020019081526020016000206000828254611663919061340c565b925050819055506001600360008473ffffffffffffffffffffffffffffffffffffffff1673ffffffffffffffffffffffffffffffffffffffff16815260200190815260200160002060008282546116ba9190613385565b92505081905550816002600083815260200190815260200160002060006101000a81548173ffffffffffffffffffffffffffffffffffffffff021916908373ffffffffffffffffffffffffffffffffffffffff160217905550808273ffffffffffffffffffffffffffffffffffffffff168473ffffffffffffffffffffffffffffffffffffffff167fddf252ad1be2c89b69c2b068fc378daa952ba7f163c4a11628f55a4df523b3ef60405160405180910390a4611779838383611df4565b505050565b6000600a60009054906101000a900473ffffffffffffffffffffffffffffffffffffffff16905081600a60006101000a81548173ffffffffffffffffffffffffffffffffffffffff021916908373ffffffffffffffffffffffffffffffffffffffff1602179055508173ffffffffffffffffffffffffffffffffffffffff168173ffffffffffffffffffffffffffffffffffffffff167f8be0079c531659141344cd1fd0a4f28419497f9722a3daafe3b4186f6b6457e060405160405180910390a35050565b8173ffffffffffffffffffffffffffffffffffffffff168373ffffffffffffffffffffffffffffffffffffffff1614156118b3576040517f08c379a00000000000000000000000000000000000000000000000000000000081526004016118aa906130c0565b60405180910390fd5b80600560008573ffffffffffffffffffffffffffffffffffffffff1673ffffffffffffffffffffffffffffffffffffffff16815260200190815260200160002060008473ffffffffffffffffffffffffffffffffffffffff1673ffffffffffffffffffffffffffffffffffffffff16815260200190815260200160002060006101000a81548160ff0219169083151502179055508173ffffffffffffffffffffffffffffffffffffffff168373ffffffffffffffffffffffffffffffffffffffff167f17307eab39ab6107e8899845ad3d59bd9653f200f220920489ca2b5937696c31836040516119a49190612fc3565b60405180910390a3505050565b6119bc848484611517565b6119c884848484611df9565b611a07576040517f08c379a00000000000000000000000000000000000000000000000000000000081526004016119fe90613020565b60405180910390fd5b50505050565b6060600d8054611a1c906134f6565b80601f0160208091040260200160405190810160405280929190818152602001828054611a48906134f6565b8015611a955780601f10611a6a57610100808354040283529160200191611a95565b820191906000526020600020905b815481529060010190602001808311611a7857829003601f168201915b5050505050905090565b60606000821415611ae7576040518060400160405280600181526020017f30000000000000000000000000000000000000000000000000000000000000008152509050611c47565b600082905060005b60008214611b19578080611b0290613559565b915050600a82611b1291906133db565b9150611aef565b60008167ffffffffffffffff811115611b5b577f4e487b7100000000000000000000000000000000000000000000000000000000600052604160045260246000fd5b6040519080825280601f01601f191660200182016040528015611b8d5781602001600182028036833780820191505090505b5090505b60008514611c4057600182611ba6919061340c565b9150600a85611bb591906135a2565b6030611bc19190613385565b60f81b818381518110611bfd577f4e487b7100000000000000000000000000000000000000000000000000000000600052603260045260246000fd5b60200101907effffffffffffffffffffffffffffffffffffffffffffffffffffffffffffff1916908160001a905350600a85611c3991906133db565b9450611b91565b8093505050505b919050565b600081600001549050919050565b6001816000016000828254019250508190555050565b611c8a828260405180602001604052806000815250611f90565b5050565b611c978261130c565b611cd6576040517f08c379a0000000000000000000000000000000000000000000000000000000008152600401611ccd906131e0565b60405180910390fd5b80600c60008481526020019081526020016000209080519060200190611cfd9291906126e3565b505050565b60007f80ac58cd000000000000000000000000000000000000000000000000000000007bffffffffffffffffffffffffffffffffffffffffffffffffffffffff1916827bffffffffffffffffffffffffffffffffffffffffffffffffffffffff19161480611dcd57507f5b5e139f000000000000000000000000000000000000000000000000000000007bffffffffffffffffffffffffffffffffffffffffffffffffffffffff1916827bffffffffffffffffffffffffffffffffffffffffffffffffffffffff1916145b80611ddd5750611ddc82611feb565b5b9050919050565b611def838383612055565b505050565b505050565b6000611e1a8473ffffffffffffffffffffffffffffffffffffffff16612169565b15611f83578373ffffffffffffffffffffffffffffffffffffffff1663150b7a02611e43611378565b8786866040518563ffffffff1660e01b8152600401611e659493929190612f77565b602060405180830381600087803b158015611e7f57600080fd5b505af1925050508015611eb057506040513d601f19601f82011682018060405250810190611ead9190612af6565b60015b611f33573d8060008114611ee0576040519150601f19603f3d011682016040523d82523d6000602084013e611ee5565b606091505b50600081511415611f2b576040517f08c379a0000000000000000000000000000000000000000000000000000000008152600401611f2290613020565b60405180910390fd5b805181602001fd5b63150b7a0260e01b7bffffffffffffffffffffffffffffffffffffffffffffffffffffffff1916817bffffffffffffffffffffffffffffffffffffffffffffffffffffffff191614915050611f88565b600190505b949350505050565b611f9a838361218c565b611fa76000848484611df9565b611fe6576040517f08c379a0000000000000000000000000000000000000000000000000000000008152600401611fdd90613020565b60405180910390fd5b505050565b60007f01ffc9a7000000000000000000000000000000000000000000000000000000007bffffffffffffffffffffffffffffffffffffffffffffffffffffffff1916827bffffffffffffffffffffffffffffffffffffffffffffffffffffffff1916149050919050565b612060838383612366565b600073ffffffffffffffffffffffffffffffffffffffff168373ffffffffffffffffffffffffffffffffffffffff1614156120a35761209e8161236b565b6120e2565b8173ffffffffffffffffffffffffffffffffffffffff168373ffffffffffffffffffffffffffffffffffffffff16146120e1576120e083826123b4565b5b5b600073ffffffffffffffffffffffffffffffffffffffff168273ffffffffffffffffffffffffffffffffffffffff1614156121255761212081612521565b612164565b8273ffffffffffffffffffffffffffffffffffffffff168273ffffffffffffffffffffffffffffffffffffffff1614612163576121628282612664565b5b5b505050565b6000808273ffffffffffffffffffffffffffffffffffffffff163b119050919050565b600073ffffffffffffffffffffffffffffffffffffffff168273ffffffffffffffffffffffffffffffffffffffff1614156121fc576040517f08c379a00000000000000000000000000000000000000000000000000000000081526004016121f3906131a0565b60405180910390fd5b6122058161130c565b15612245576040517f08c379a000000000000000000000000000000000000000000000000000000000815260040161223c90613080565b60405180910390fd5b61225160008383611de4565b6001600360008473ffffffffffffffffffffffffffffffffffffffff1673ffffffffffffffffffffffffffffffffffffffff16815260200190815260200160002060008282546122a19190613385565b92505081905550816002600083815260200190815260200160002060006101000a81548173ffffffffffffffffffffffffffffffffffffffff021916908373ffffffffffffffffffffffffffffffffffffffff160217905550808273ffffffffffffffffffffffffffffffffffffffff16600073ffffffffffffffffffffffffffffffffffffffff167fddf252ad1be2c89b69c2b068fc378daa952ba7f163c4a11628f55a4df523b3ef60405160405180910390a461236260008383611df4565b5050565b505050565b6008805490506009600083815260200190815260200160002081905550600881908060018154018082558091505060019003906000526020600020016000909190919091505550565b600060016123c184610bcc565b6123cb919061340c565b90506000600760008481526020019081526020016000205490508181146124b0576000600660008673ffffffffffffffffffffffffffffffffffffffff1673ffffffffffffffffffffffffffffffffffffffff168152602001908152602001600020600084815260200190815260200160002054905080600660008773ffffffffffffffffffffffffffffffffffffffff1673ffffffffffffffffffffffffffffffffffffffff168152602001908152602001600020600084815260200190815260200160002081905550816007600083815260200190815260200160002081905550505b6007600084815260200190815260200160002060009055600660008573ffffffffffffffffffffffffffffffffffffffff1673ffffffffffffffffffffffffffffffffffffffff16815260200190815260200160002060008381526020019081526020016000206000905550505050565b60006001600880549050612535919061340c565b905060006009600084815260200190815260200160002054905060006008838154811061258b577f4e487b7100000000000000000000000000000000000000000000000000000000600052603260045260246000fd5b9060005260206000200154905080600883815481106125d3577f4e487b7100000000000000000000000000000000000000000000000000000000600052603260045260246000fd5b906000526020600020018190555081600960008381526020019081526020016000208190555060096000858152602001908152602001600020600090556008805480612648577f4e487b7100000000000000000000000000000000000000000000000000000000600052603160045260246000fd5b6001900381819060005260206000200160009055905550505050565b600061266f83610bcc565b905081600660008573ffffffffffffffffffffffffffffffffffffffff1673ffffffffffffffffffffffffffffffffffffffff168152602001908152602001600020600083815260200190815260200160002081905550806007600084815260200190815260200160002081905550505050565b8280546126ef906134f6565b90600052602060002090601f0160209004810192826127115760008555612758565b82601f1061272a57805160ff1916838001178555612758565b82800160010185558215612758579182015b8281111561275757825182559160200191906001019061273c565b5b5090506127659190612769565b5090565b5b8082111561278257600081600090555060010161276a565b5090565b6000612799612794846132e0565b6132bb565b9050828152602081018484840111156127b157600080fd5b6127bc8482856134b4565b509392505050565b60006127d76127d284613311565b6132bb565b9050828152602081018484840111156127ef57600080fd5b6127fa8482856134b4565b509392505050565b60008135905061281181613c83565b92915050565b60008135905061282681613c9a565b92915050565b60008135905061283b81613cb1565b92915050565b60008151905061285081613cb1565b92915050565b600082601f83011261286757600080fd5b8135612877848260208601612786565b91505092915050565b600082601f83011261289157600080fd5b81356128a18482602086016127c4565b91505092915050565b6000813590506128b981613cc8565b92915050565b6000602082840312156128d157600080fd5b60006128df84828501612802565b91505092915050565b600080604083850312156128fb57600080fd5b600061290985828601612802565b925050602061291a85828601612802565b9150509250929050565b60008060006060848603121561293957600080fd5b600061294786828701612802565b935050602061295886828701612802565b9250506040612969868287016128aa565b9150509250925092565b6000806000806080858703121561298957600080fd5b600061299787828801612802565b94505060206129a887828801612802565b93505060406129b9878288016128aa565b925050606085013567ffffffffffffffff8111156129d657600080fd5b6129e287828801612856565b91505092959194509250565b60008060408385031215612a0157600080fd5b6000612a0f85828601612802565b9250506020612a2085828601612817565b9150509250929050565b60008060408385031215612a3d57600080fd5b6000612a4b85828601612802565b9250506020612a5c858286016128aa565b9150509250929050565b600080600060608486031215612a7b57600080fd5b6000612a8986828701612802565b9350506020612a9a868287016128aa565b925050604084013567ffffffffffffffff811115612ab757600080fd5b612ac386828701612880565b9150509250925092565b600060208284031215612adf57600080fd5b6000612aed8482850161282c565b91505092915050565b600060208284031215612b0857600080fd5b6000612b1684828501612841565b91505092915050565b600060208284031215612b3157600080fd5b600082013567ffffffffffffffff811115612b4b57600080fd5b612b5784828501612880565b91505092915050565b600060208284031215612b7257600080fd5b6000612b80848285016128aa565b91505092915050565b612b9281613440565b82525050565b612ba181613452565b82525050565b6000612bb282613342565b612bbc8185613358565b9350612bcc8185602086016134c3565b612bd58161368f565b840191505092915050565b6000612beb8261334d565b612bf58185613369565b9350612c058185602086016134c3565b612c0e8161368f565b840191505092915050565b6000612c248261334d565b612c2e818561337a565b9350612c3e8185602086016134c3565b80840191505092915050565b6000612c57602b83613369565b9150612c62826136a0565b604082019050919050565b6000612c7a603283613369565b9150612c85826136ef565b604082019050919050565b6000612c9d602683613369565b9150612ca88261373e565b604082019050919050565b6000612cc0602583613369565b9150612ccb8261378d565b604082019050919050565b6000612ce3601c83613369565b9150612cee826137dc565b602082019050919050565b6000612d06602483613369565b9150612d1182613805565b604082019050919050565b6000612d29601983613369565b9150612d3482613854565b602082019050919050565b6000612d4c602583613369565b9150612d578261387d565b604082019050919050565b6000612d6f602183613369565b9150612d7a826138cc565b604082019050919050565b6000612d92602c83613369565b9150612d9d8261391b565b604082019050919050565b6000612db5603883613369565b9150612dc08261396a565b604082019050919050565b6000612dd8602a83613369565b9150612de3826139b9565b604082019050919050565b6000612dfb602983613369565b9150612e0682613a08565b604082019050919050565b6000612e1e602083613369565b9150612e2982613a57565b602082019050919050565b6000612e41602c83613369565b9150612e4c82613a80565b604082019050919050565b6000612e64602c83613369565b9150612e6f82613acf565b604082019050919050565b6000612e87602083613369565b9150612e9282613b1e565b602082019050919050565b6000612eaa602f83613369565b9150612eb582613b47565b604082019050919050565b6000612ecd602183613369565b9150612ed882613b96565b604082019050919050565b6000612ef0603183613369565b9150612efb82613be5565b604082019050919050565b6000612f13602c83613369565b9150612f1e82613c34565b604082019050919050565b612f32816134aa565b82525050565b6000612f448285612c19565b9150612f508284612c19565b91508190509392505050565b6000602082019050612f716000830184612b89565b92915050565b6000608082019050612f8c6000830187612b89565b612f996020830186612b89565b612fa66040830185612f29565b8181036060830152612fb88184612ba7565b905095945050505050565b6000602082019050612fd86000830184612b98565b92915050565b60006020820190508181036000830152612ff88184612be0565b905092915050565b6000602082019050818103600083015261301981612c4a565b9050919050565b6000602082019050818103600083015261303981612c6d565b9050919050565b6000602082019050818103600083015261305981612c90565b9050919050565b6000602082019050818103600083015261307981612cb3565b9050919050565b6000602082019050818103600083015261309981612cd6565b9050919050565b600060208201905081810360008301526130b981612cf9565b9050919050565b600060208201905081810360008301526130d981612d1c565b9050919050565b600060208201905081810360008301526130f981612d3f565b9050919050565b6000602082019050818103600083015261311981612d62565b9050919050565b6000602082019050818103600083015261313981612d85565b9050919050565b6000602082019050818103600083015261315981612da8565b9050919050565b6000602082019050818103600083015261317981612dcb565b9050919050565b6000602082019050818103600083015261319981612dee565b9050919050565b600060208201905081810360008301526131b981612e11565b9050919050565b600060208201905081810360008301526131d981612e34565b9050919050565b600060208201905081810360008301526131f981612e57565b9050919050565b6000602082019050818103600083015261321981612e7a565b9050919050565b6000602082019050818103600083015261323981612e9d565b9050919050565b6000602082019050818103600083015261325981612ec0565b9050919050565b6000602082019050818103600083015261327981612ee3565b9050919050565b6000602082019050818103600083015261329981612f06565b9050919050565b60006020820190506132b56000830184612f29565b92915050565b60006132c56132d6565b90506132d18282613528565b919050565b6000604051905090565b600067ffffffffffffffff8211156132fb576132fa613660565b5b6133048261368f565b9050602081019050919050565b600067ffffffffffffffff82111561332c5761332b613660565b5b6133358261368f565b9050602081019050919050565b600081519050919050565b600081519050919050565b600082825260208201905092915050565b600082825260208201905092915050565b600081905092915050565b6000613390826134aa565b915061339b836134aa565b9250827fffffffffffffffffffffffffffffffffffffffffffffffffffffffffffffffff038211156133d0576133cf6135d3565b5b828201905092915050565b60006133e6826134aa565b91506133f1836134aa565b92508261340157613400613602565b5b828204905092915050565b6000613417826134aa565b9150613422836134aa565b925082821015613435576134346135d3565b5b828203905092915050565b600061344b8261348a565b9050919050565b60008115159050919050565b60007fffffffff0000000000000000000000000000000000000000000000000000000082169050919050565b600073ffffffffffffffffffffffffffffffffffffffff82169050919050565b6000819050919050565b82818337600083830152505050565b60005b838110156134e15780820151818401526020810190506134c6565b838111156134f0576000848401525b50505050565b6000600282049050600182168061350e57607f821691505b6020821081141561352257613521613631565b5b50919050565b6135318261368f565b810181811067ffffffffffffffff821117156135505761354f613660565b5b80604052505050565b6000613564826134aa565b91507fffffffffffffffffffffffffffffffffffffffffffffffffffffffffffffffff821415613597576135966135d3565b5b600182019050919050565b60006135ad826134aa565b91506135b8836134aa565b9250826135c8576135c7613602565b5b828206905092915050565b7f4e487b7100000000000000000000000000000000000000000000000000000000600052601160045260246000fd5b7f4e487b7100000000000000000000000000000000000000000000000000000000600052601260045260246000fd5b7f4e487b7100000000000000000000000000000000000000000000000000000000600052602260045260246000fd5b7f4e487b7100000000000000000000000000000000000000000000000000000000600052604160045260246000fd5b6000601f19601f8301169050919050565b7f455243373231456e756d657261626c653a206f776e657220696e646578206f7560008201527f74206f6620626f756e6473000000000000000000000000000000000000000000602082015250565b7f4552433732313a207472616e7366657220746f206e6f6e20455243373231526560008201527f63656976657220696d706c656d656e7465720000000000000000000000000000602082015250565b7f4f776e61626c653a206e6577206f776e657220697320746865207a65726f206160008201527f6464726573730000000000000000000000000000000000000000000000000000602082015250565b7f4552433732313a207472616e736665722066726f6d20696e636f72726563742060008201527f6f776e6572000000000000000000000000000000000000000000000000000000602082015250565b7f4552433732313a20746f6b656e20616c7265616479206d696e74656400000000600082015250565b7f4552433732313a207472616e7366657220746f20746865207a65726f2061646460008201527f7265737300000000000000000000000000000000000000000000000000000000602082015250565b7f4552433732313a20617070726f766520746f2063616c6c657200000000000000600082015250565b7f4d6178206c696d697420666f7220546f6b656e7320616c7265616479206d696e60008201527f7465642021000000000000000000000000000000000000000000000000000000602082015250565b7f4e6f7420656e6f756768204554482c20636865636b207468652070726963652060008201527f2100000000000000000000000000000000000000000000000000000000000000602082015250565b7f4552433732313a206f70657261746f7220717565727920666f72206e6f6e657860008201527f697374656e7420746f6b656e0000000000000000000000000000000000000000602082015250565b7f4552433732313a20617070726f76652063616c6c6572206973206e6f74206f7760008201527f6e6572206e6f7220617070726f76656420666f7220616c6c0000000000000000602082015250565b7f4552433732313a2062616c616e636520717565727920666f7220746865207a6560008201527f726f206164647265737300000000000000000000000000000000000000000000602082015250565b7f4552433732313a206f776e657220717565727920666f72206e6f6e657869737460008201527f656e7420746f6b656e0000000000000000000000000000000000000000000000602082015250565b7f4552433732313a206d696e7420746f20746865207a65726f2061646472657373600082015250565b7f4552433732313a20617070726f76656420717565727920666f72206e6f6e657860008201527f697374656e7420746f6b656e0000000000000000000000000000000000000000602082015250565b7f4552433732314d657461646174613a2055524920736574206f66206e6f6e657860008201527f697374656e7420746f6b656e0000000000000000000000000000000000000000602082015250565b7f4f776e61626c653a2063616c6c6572206973206e6f7420746865206f776e6572600082015250565b7f4552433732314d657461646174613a2055524920717565727920666f72206e6f60008201527f6e6578697374656e7420746f6b656e0000000000000000000000000000000000602082015250565b7f4552433732313a20617070726f76616c20746f2063757272656e74206f776e6560008201527f7200000000000000000000000000000000000000000000000000000000000000602082015250565b7f4552433732313a207472616e736665722063616c6c6572206973206e6f74206f60008201527f776e6572206e6f7220617070726f766564000000000000000000000000000000602082015250565b7f455243373231456e756d657261626c653a20676c6f62616c20696e646578206f60008201527f7574206f6620626f756e64730000000000000000000000000000000000000000602082015250565b613c8c81613440565b8114613c9757600080fd5b50565b613ca381613452565b8114613cae57600080fd5b50565b613cba8161345e565b8114613cc557600080fd5b50565b613cd1816134aa565b8114613cdc57600080fd5b5056fea264697066735822122059082124dae1285446b163015356871989570ee41ee92ea5de429036c2a813f864736f6c63430008040033",
  "linkReferences": {},
  "deployedLinkReferences": {}
}