{
  "_format": "hh-sol-artifact-1",
  "contractName": "CustomMint",
  "sourceName": "contracts/CustomMint.sol",
  "abi": [
    {
      "inputs": [],
      "stateMutability": "nonpayable",
      "type": "constructor"
    },
    {
      "anonymous": false,
      "inputs": [
        {
          "indexed": true,
          "internalType": "address",
          "name": "owner",
          "type": "address"
        },
        {
          "indexed": true,
          "internalType": "address",
          "name": "approved",
          "type": "address"
        },
        {
          "indexed": true,
          "internalType": "uint256",
          "name": "tokenId",
          "type": "uint256"
        }
      ],
      "name": "Approval",
      "type": "event"
    },
    {
      "anonymous": false,
      "inputs": [
        {
          "indexed": true,
          "internalType": "address",
          "name": "owner",
          "type": "address"
        },
        {
          "indexed": true,
          "internalType": "address",
          "name": "operator",
          "type": "address"
        },
        {
          "indexed": false,
          "internalType": "bool",
          "name": "approved",
          "type": "bool"
        }
      ],
      "name": "ApprovalForAll",
      "type": "event"
    },
    {
      "anonymous": false,
      "inputs": [
        {
          "indexed": true,
          "internalType": "address",
          "name": "previousOwner",
          "type": "address"
        },
        {
          "indexed": true,
          "internalType": "address",
          "name": "newOwner",
          "type": "address"
        }
      ],
      "name": "OwnershipTransferred",
      "type": "event"
    },
    {
      "anonymous": false,
      "inputs": [
        {
          "indexed": true,
          "internalType": "address",
          "name": "from",
          "type": "address"
        },
        {
          "indexed": true,
          "internalType": "address",
          "name": "to",
          "type": "address"
        },
        {
          "indexed": true,
          "internalType": "uint256",
          "name": "tokenId",
          "type": "uint256"
        }
      ],
      "name": "Transfer",
      "type": "event"
    },
    {
      "inputs": [
        {
          "internalType": "address",
          "name": "to",
          "type": "address"
        },
        {
          "internalType": "uint256",
          "name": "tokenId",
          "type": "uint256"
        }
      ],
      "name": "approve",
      "outputs": [],
      "stateMutability": "nonpayable",
      "type": "function"
    },
    {
      "inputs": [
        {
          "internalType": "address",
          "name": "owner",
          "type": "address"
        }
      ],
      "name": "balanceOf",
      "outputs": [
        {
          "internalType": "uint256",
          "name": "",
          "type": "uint256"
        }
      ],
      "stateMutability": "view",
      "type": "function"
    },
    {
      "inputs": [
        {
          "internalType": "uint256",
          "name": "tokenId",
          "type": "uint256"
        }
      ],
      "name": "getApproved",
      "outputs": [
        {
          "internalType": "address",
          "name": "",
          "type": "address"
        }
      ],
      "stateMutability": "view",
      "type": "function"
    },
    {
      "inputs": [
        {
          "internalType": "address",
          "name": "owner",
          "type": "address"
        },
        {
          "internalType": "address",
          "name": "operator",
          "type": "address"
        }
      ],
      "name": "isApprovedForAll",
      "outputs": [
        {
          "internalType": "bool",
          "name": "",
          "type": "bool"
        }
      ],
      "stateMutability": "view",
      "type": "function"
    },
    {
      "inputs": [],
      "name": "maxSupply",
      "outputs": [
        {
          "internalType": "uint8",
          "name": "",
          "type": "uint8"
        }
      ],
      "stateMutability": "view",
      "type": "function"
    },
    {
      "inputs": [],
      "name": "name",
      "outputs": [
        {
          "internalType": "string",
          "name": "",
          "type": "string"
        }
      ],
      "stateMutability": "view",
      "type": "function"
    },
    {
      "inputs": [],
      "name": "owner",
      "outputs": [
        {
          "internalType": "address",
          "name": "",
          "type": "address"
        }
      ],
      "stateMutability": "view",
      "type": "function"
    },
    {
      "inputs": [
        {
          "internalType": "uint256",
          "name": "tokenId",
          "type": "uint256"
        }
      ],
      "name": "ownerOf",
      "outputs": [
        {
          "internalType": "address",
          "name": "",
          "type": "address"
        }
      ],
      "stateMutability": "view",
      "type": "function"
    },
    {
      "inputs": [],
      "name": "renounceOwnership",
      "outputs": [],
      "stateMutability": "nonpayable",
      "type": "function"
    },
    {
      "inputs": [
        {
          "internalType": "address",
          "name": "to",
          "type": "address"
        },
        {
          "internalType": "uint256",
          "name": "_tokenId",
          "type": "uint256"
        },
        {
          "internalType": "string",
          "name": "tokenURI_",
          "type": "string"
        }
      ],
      "name": "safeMint",
      "outputs": [
        {
          "internalType": "uint256",
          "name": "",
          "type": "uint256"
        }
      ],
      "stateMutability": "payable",
      "type": "function"
    },
    {
      "inputs": [
        {
          "internalType": "address",
          "name": "from",
          "type": "address"
        },
        {
          "internalType": "address",
          "name": "to",
          "type": "address"
        },
        {
          "internalType": "uint256",
          "name": "tokenId",
          "type": "uint256"
        }
      ],
      "name": "safeTransferFrom",
      "outputs": [],
      "stateMutability": "nonpayable",
      "type": "function"
    },
    {
      "inputs": [
        {
          "internalType": "address",
          "name": "from",
          "type": "address"
        },
        {
          "internalType": "address",
          "name": "to",
          "type": "address"
        },
        {
          "internalType": "uint256",
          "name": "tokenId",
          "type": "uint256"
        },
        {
          "internalType": "bytes",
          "name": "_data",
          "type": "bytes"
        }
      ],
      "name": "safeTransferFrom",
      "outputs": [],
      "stateMutability": "nonpayable",
      "type": "function"
    },
    {
      "inputs": [
        {
          "internalType": "address",
          "name": "operator",
          "type": "address"
        },
        {
          "internalType": "bool",
          "name": "approved",
          "type": "bool"
        }
      ],
      "name": "setApprovalForAll",
      "outputs": [],
      "stateMutability": "nonpayable",
      "type": "function"
    },
    {
      "inputs": [
        {
          "internalType": "string",
          "name": "baseURI_",
          "type": "string"
        }
      ],
      "name": "setBaseURI",
      "outputs": [],
      "stateMutability": "nonpayable",
      "type": "function"
    },
    {
      "inputs": [
        {
          "internalType": "uint256",
          "name": "_fee",
          "type": "uint256"
        }
      ],
      "name": "setMintFee",
      "outputs": [],
      "stateMutability": "nonpayable",
      "type": "function"
    },
    {
      "inputs": [
        {
          "internalType": "bytes4",
          "name": "interfaceId",
          "type": "bytes4"
        }
      ],
      "name": "supportsInterface",
      "outputs": [
        {
          "internalType": "bool",
          "name": "",
          "type": "bool"
        }
      ],
      "stateMutability": "view",
      "type": "function"
    },
    {
      "inputs": [],
      "name": "symbol",
      "outputs": [
        {
          "internalType": "string",
          "name": "",
          "type": "string"
        }
      ],
      "stateMutability": "view",
      "type": "function"
    },
    {
      "inputs": [
        {
          "internalType": "uint256",
          "name": "index",
          "type": "uint256"
        }
      ],
      "name": "tokenByIndex",
      "outputs": [
        {
          "internalType": "uint256",
          "name": "",
          "type": "uint256"
        }
      ],
      "stateMutability": "view",
      "type": "function"
    },
    {
      "inputs": [
        {
          "internalType": "address",
          "name": "owner",
          "type": "address"
        },
        {
          "internalType": "uint256",
          "name": "index",
          "type": "uint256"
        }
      ],
      "name": "tokenOfOwnerByIndex",
      "outputs": [
        {
          "internalType": "uint256",
          "name": "",
          "type": "uint256"
        }
      ],
      "stateMutability": "view",
      "type": "function"
    },
    {
      "inputs": [
        {
          "internalType": "uint256",
          "name": "tokenId",
          "type": "uint256"
        }
      ],
      "name": "tokenURI",
      "outputs": [
        {
          "internalType": "string",
          "name": "",
          "type": "string"
        }
      ],
      "stateMutability": "view",
      "type": "function"
    },
    {
      "inputs": [],
      "name": "totalSupply",
      "outputs": [
        {
          "internalType": "uint256",
          "name": "",
          "type": "uint256"
        }
      ],
      "stateMutability": "view",
      "type": "function"
    },
    {
      "inputs": [
        {
          "internalType": "address",
          "name": "from",
          "type": "address"
        },
        {
          "internalType": "address",
          "name": "to",
          "type": "address"
        },
        {
          "internalType": "uint256",
          "name": "tokenId",
          "type": "uint256"
        }
      ],
      "name": "transferFrom",
      "outputs": [],
      "stateMutability": "nonpayable",
      "type": "function"
    },
    {
      "inputs": [
        {
          "internalType": "address",
          "name": "newOwner",
          "type": "address"
        }
      ],
      "name": "transferOwnership",
      "outputs": [],
      "stateMutability": "nonpayable",
      "type": "function"
    },
    {
      "inputs": [],
      "name": "withdraw",
      "outputs": [],
      "stateMutability": "payable",
      "type": "function"
    }
  ],
  "bytecode": "0x608060405266038d7ea4c68000600e553480156200001c57600080fd5b506040518060400160405280600a81526020017f437573746f6d4d696e74000000000000000000000000000000000000000000008152506040518060400160405280600381526020017f434d5400000000000000000000000000000000000000000000000000000000008152508160009080519060200190620000a1929190620001b1565b508060019080519060200190620000ba929190620001b1565b505050620000dd620000d1620000e360201b60201c565b620000eb60201b60201c565b620002c6565b600033905090565b6000600a60009054906101000a900473ffffffffffffffffffffffffffffffffffffffff16905081600a60006101000a81548173ffffffffffffffffffffffffffffffffffffffff021916908373ffffffffffffffffffffffffffffffffffffffff1602179055508173ffffffffffffffffffffffffffffffffffffffff168173ffffffffffffffffffffffffffffffffffffffff167f8be0079c531659141344cd1fd0a4f28419497f9722a3daafe3b4186f6b6457e060405160405180910390a35050565b828054620001bf9062000261565b90600052602060002090601f016020900481019282620001e357600085556200022f565b82601f10620001fe57805160ff19168380011785556200022f565b828001600101855582156200022f579182015b828111156200022e57825182559160200191906001019062000211565b5b5090506200023e919062000242565b5090565b5b808211156200025d57600081600090555060010162000243565b5090565b600060028204905060018216806200027a57607f821691505b6020821081141562000291576200029062000297565b5b50919050565b7f4e487b7100000000000000000000000000000000000000000000000000000000600052602260045260246000fd5b613e2480620002d66000396000f3fe60806040526004361061014b5760003560e01c806370a08231116100b6578063c87b56dd1161006f578063c87b56dd14610481578063cd279c7c146104be578063d5abeb01146104ee578063e985e9c514610519578063eddd0d9c14610556578063f2fde38b1461057f5761014b565b806370a0823114610385578063715018a6146103c25780638da5cb5b146103d957806395d89b4114610404578063a22cb4651461042f578063b88d4fde146104585761014b565b80632f745c59116101085780632f745c59146102725780633ccfd60b146102af57806342842e0e146102b95780634f6ccce7146102e257806355f804b31461031f5780636352211e146103485761014b565b806301ffc9a71461015057806306fdde031461018d578063081812fc146101b8578063095ea7b3146101f557806318160ddd1461021e57806323b872dd14610249575b600080fd5b34801561015c57600080fd5b5061017760048036038101906101729190612b13565b6105a8565b604051610184919061303b565b60405180910390f35b34801561019957600080fd5b506101a26105ba565b6040516101af9190613056565b60405180910390f35b3480156101c457600080fd5b506101df60048036038101906101da9190612ba6565b61064c565b6040516101ec9190612fd4565b60405180910390f35b34801561020157600080fd5b5061021c60048036038101906102179190612a70565b6106d1565b005b34801561022a57600080fd5b506102336107e9565b6040516102409190613338565b60405180910390f35b34801561025557600080fd5b50610270600480360381019061026b919061296a565b6107f6565b005b34801561027e57600080fd5b5061029960048036038101906102949190612a70565b610856565b6040516102a69190613338565b60405180910390f35b6102b76108fb565b005b3480156102c557600080fd5b506102e060048036038101906102db919061296a565b6109cd565b005b3480156102ee57600080fd5b5061030960048036038101906103049190612ba6565b6109ed565b6040516103169190613338565b60405180910390f35b34801561032b57600080fd5b5061034660048036038101906103419190612b65565b610a84565b005b34801561035457600080fd5b5061036f600480360381019061036a9190612ba6565b610b1a565b60405161037c9190612fd4565b60405180910390f35b34801561039157600080fd5b506103ac60048036038101906103a79190612905565b610bcc565b6040516103b99190613338565b60405180910390f35b3480156103ce57600080fd5b506103d7610c84565b005b3480156103e557600080fd5b506103ee610d0c565b6040516103fb9190612fd4565b60405180910390f35b34801561041057600080fd5b50610419610d36565b6040516104269190613056565b60405180910390f35b34801561043b57600080fd5b5061045660048036038101906104519190612a34565b610dc8565b005b34801561046457600080fd5b5061047f600480360381019061047a91906129b9565b610dde565b005b34801561048d57600080fd5b506104a860048036038101906104a39190612ba6565b610e40565b6040516104b59190613056565b60405180910390f35b6104d860048036038101906104d39190612aac565b610fb3565b6040516104e59190613338565b60405180910390f35b3480156104fa57600080fd5b5061050361107e565b6040516105109190613353565b60405180910390f35b34801561052557600080fd5b50610540600480360381019061053b919061292e565b611083565b60405161054d919061303b565b60405180910390f35b34801561056257600080fd5b5061057d60048036038101906105789190612ba6565b611117565b005b34801561058b57600080fd5b506105a660048036038101906105a19190612905565b6111e0565b005b60006105b3826112d8565b9050919050565b6060600080546105c9906135b6565b80601f01602080910402602001604051908101604052809291908181526020018280546105f5906135b6565b80156106425780601f1061061757610100808354040283529160200191610642565b820191906000526020600020905b81548152906001019060200180831161062557829003601f168201915b5050505050905090565b600061065782611352565b610696576040517f08c379a000000000000000000000000000000000000000000000000000000000815260040161068d90613258565b60405180910390fd5b6004600083815260200190815260200160002060009054906101000a900473ffffffffffffffffffffffffffffffffffffffff169050919050565b60006106dc82610b1a565b90508073ffffffffffffffffffffffffffffffffffffffff168373ffffffffffffffffffffffffffffffffffffffff16141561074d576040517f08c379a0000000000000000000000000000000000000000000000000000000008152600401610744906132d8565b60405180910390fd5b8073ffffffffffffffffffffffffffffffffffffffff1661076c6113be565b73ffffffffffffffffffffffffffffffffffffffff16148061079b575061079a816107956113be565b611083565b5b6107da576040517f08c379a00000000000000000000000000000000000000000000000000000000081526004016107d1906131d8565b60405180910390fd5b6107e483836113c6565b505050565b6000600880549050905090565b6108076108016113be565b8261147f565b610846576040517f08c379a000000000000000000000000000000000000000000000000000000000815260040161083d906132f8565b60405180910390fd5b61085183838361155d565b505050565b600061086183610bcc565b82106108a2576040517f08c379a000000000000000000000000000000000000000000000000000000000815260040161089990613078565b60405180910390fd5b600660008473ffffffffffffffffffffffffffffffffffffffff1673ffffffffffffffffffffffffffffffffffffffff168152602001908152602001600020600083815260200190815260200160002054905092915050565b6109036113be565b73ffffffffffffffffffffffffffffffffffffffff16610921610d0c565b73ffffffffffffffffffffffffffffffffffffffff1614610977576040517f08c379a000000000000000000000000000000000000000000000000000000000815260040161096e90613298565b60405180910390fd5b6000610981610d0c565b90508073ffffffffffffffffffffffffffffffffffffffff166108fc479081150290604051600060405180830381858888f193505050501580156109c9573d6000803e3d6000fd5b5050565b6109e883838360405180602001604052806000815250610dde565b505050565b60006109f76107e9565b8210610a38576040517f08c379a0000000000000000000000000000000000000000000000000000000008152600401610a2f90613318565b60405180910390fd5b60088281548110610a72577f4e487b7100000000000000000000000000000000000000000000000000000000600052603260045260246000fd5b90600052602060002001549050919050565b610a8c6113be565b73ffffffffffffffffffffffffffffffffffffffff16610aaa610d0c565b73ffffffffffffffffffffffffffffffffffffffff1614610b00576040517f08c379a0000000000000000000000000000000000000000000000000000000008152600401610af790613298565b60405180910390fd5b80600d9080519060200190610b16929190612729565b5050565b6000806002600084815260200190815260200160002060009054906101000a900473ffffffffffffffffffffffffffffffffffffffff169050600073ffffffffffffffffffffffffffffffffffffffff168173ffffffffffffffffffffffffffffffffffffffff161415610bc3576040517f08c379a0000000000000000000000000000000000000000000000000000000008152600401610bba90613218565b60405180910390fd5b80915050919050565b60008073ffffffffffffffffffffffffffffffffffffffff168273ffffffffffffffffffffffffffffffffffffffff161415610c3d576040517f08c379a0000000000000000000000000000000000000000000000000000000008152600401610c34906131f8565b60405180910390fd5b600360008373ffffffffffffffffffffffffffffffffffffffff1673ffffffffffffffffffffffffffffffffffffffff168152602001908152602001600020549050919050565b610c8c6113be565b73ffffffffffffffffffffffffffffffffffffffff16610caa610d0c565b73ffffffffffffffffffffffffffffffffffffffff1614610d00576040517f08c379a0000000000000000000000000000000000000000000000000000000008152600401610cf790613298565b60405180910390fd5b610d0a60006117c4565b565b6000600a60009054906101000a900473ffffffffffffffffffffffffffffffffffffffff16905090565b606060018054610d45906135b6565b80601f0160208091040260200160405190810160405280929190818152602001828054610d71906135b6565b8015610dbe5780601f10610d9357610100808354040283529160200191610dbe565b820191906000526020600020905b815481529060010190602001808311610da157829003601f168201915b5050505050905090565b610dda610dd36113be565b838361188a565b5050565b610def610de96113be565b8361147f565b610e2e576040517f08c379a0000000000000000000000000000000000000000000000000000000008152600401610e25906132f8565b60405180910390fd5b610e3a848484846119f7565b50505050565b6060610e4b82611352565b610e8a576040517f08c379a0000000000000000000000000000000000000000000000000000000008152600401610e81906132b8565b60405180910390fd5b6000600c60008481526020019081526020016000208054610eaa906135b6565b80601f0160208091040260200160405190810160405280929190818152602001828054610ed6906135b6565b8015610f235780601f10610ef857610100808354040283529160200191610f23565b820191906000526020600020905b815481529060010190602001808311610f0657829003601f168201915b505050505090506000610f34611a53565b9050600081511415610f4a578192505050610fae565b600082511115610f7f578082604051602001610f67929190612fb0565b60405160208183030381529060405292505050610fae565b80610f8985611ae5565b604051602001610f9a929190612fb0565b604051602081830303815290604052925050505b919050565b6000600e54341015610ffa576040517f08c379a0000000000000000000000000000000000000000000000000000000008152600401610ff190613198565b60405180910390fd5b606460ff166110076107e9565b10611047576040517f08c379a000000000000000000000000000000000000000000000000000000000815260040161103e90613178565b60405180910390fd5b6000611053600b611c92565b905061105f600b611ca0565b6110698582611cb6565b6110738484611cd4565b809150509392505050565b606481565b6000600560008473ffffffffffffffffffffffffffffffffffffffff1673ffffffffffffffffffffffffffffffffffffffff16815260200190815260200160002060008373ffffffffffffffffffffffffffffffffffffffff1673ffffffffffffffffffffffffffffffffffffffff16815260200190815260200160002060009054906101000a900460ff16905092915050565b61111f6113be565b73ffffffffffffffffffffffffffffffffffffffff1661113d610d0c565b73ffffffffffffffffffffffffffffffffffffffff1614611193576040517f08c379a000000000000000000000000000000000000000000000000000000000815260040161118a90613298565b60405180910390fd5b600081116111d6576040517f08c379a00000000000000000000000000000000000000000000000000000000081526004016111cd90613158565b60405180910390fd5b80600e8190555050565b6111e86113be565b73ffffffffffffffffffffffffffffffffffffffff16611206610d0c565b73ffffffffffffffffffffffffffffffffffffffff161461125c576040517f08c379a000000000000000000000000000000000000000000000000000000000815260040161125390613298565b60405180910390fd5b600073ffffffffffffffffffffffffffffffffffffffff168173ffffffffffffffffffffffffffffffffffffffff1614156112cc576040517f08c379a00000000000000000000000000000000000000000000000000000000081526004016112c3906130b8565b60405180910390fd5b6112d5816117c4565b50565b60007f780e9d63000000000000000000000000000000000000000000000000000000007bffffffffffffffffffffffffffffffffffffffffffffffffffffffff1916827bffffffffffffffffffffffffffffffffffffffffffffffffffffffff1916148061134b575061134a82611d48565b5b9050919050565b60008073ffffffffffffffffffffffffffffffffffffffff166002600084815260200190815260200160002060009054906101000a900473ffffffffffffffffffffffffffffffffffffffff1673ffffffffffffffffffffffffffffffffffffffff1614159050919050565b600033905090565b816004600083815260200190815260200160002060006101000a81548173ffffffffffffffffffffffffffffffffffffffff021916908373ffffffffffffffffffffffffffffffffffffffff160217905550808273ffffffffffffffffffffffffffffffffffffffff1661143983610b1a565b73ffffffffffffffffffffffffffffffffffffffff167f8c5be1e5ebec7d5bd14f71427d1e84f3dd0314c0f7b2291e5b200ac8c7c3b92560405160405180910390a45050565b600061148a82611352565b6114c9576040517f08c379a00000000000000000000000000000000000000000000000000000000081526004016114c0906131b8565b60405180910390fd5b60006114d483610b1a565b90508073ffffffffffffffffffffffffffffffffffffffff168473ffffffffffffffffffffffffffffffffffffffff16148061154357508373ffffffffffffffffffffffffffffffffffffffff1661152b8461064c565b73ffffffffffffffffffffffffffffffffffffffff16145b8061155457506115538185611083565b5b91505092915050565b8273ffffffffffffffffffffffffffffffffffffffff1661157d82610b1a565b73ffffffffffffffffffffffffffffffffffffffff16146115d3576040517f08c379a00000000000000000000000000000000000000000000000000000000081526004016115ca906130d8565b60405180910390fd5b600073ffffffffffffffffffffffffffffffffffffffff168273ffffffffffffffffffffffffffffffffffffffff161415611643576040517f08c379a000000000000000000000000000000000000000000000000000000000815260040161163a90613118565b60405180910390fd5b61164e838383611e2a565b6116596000826113c6565b6001600360008573ffffffffffffffffffffffffffffffffffffffff1673ffffffffffffffffffffffffffffffffffffffff16815260200190815260200160002060008282546116a991906134bf565b925050819055506001600360008473ffffffffffffffffffffffffffffffffffffffff1673ffffffffffffffffffffffffffffffffffffffff16815260200190815260200160002060008282546117009190613438565b92505081905550816002600083815260200190815260200160002060006101000a81548173ffffffffffffffffffffffffffffffffffffffff021916908373ffffffffffffffffffffffffffffffffffffffff160217905550808273ffffffffffffffffffffffffffffffffffffffff168473ffffffffffffffffffffffffffffffffffffffff167fddf252ad1be2c89b69c2b068fc378daa952ba7f163c4a11628f55a4df523b3ef60405160405180910390a46117bf838383611e3a565b505050565b6000600a60009054906101000a900473ffffffffffffffffffffffffffffffffffffffff16905081600a60006101000a81548173ffffffffffffffffffffffffffffffffffffffff021916908373ffffffffffffffffffffffffffffffffffffffff1602179055508173ffffffffffffffffffffffffffffffffffffffff168173ffffffffffffffffffffffffffffffffffffffff167f8be0079c531659141344cd1fd0a4f28419497f9722a3daafe3b4186f6b6457e060405160405180910390a35050565b8173ffffffffffffffffffffffffffffffffffffffff168373ffffffffffffffffffffffffffffffffffffffff1614156118f9576040517f08c379a00000000000000000000000000000000000000000000000000000000081526004016118f090613138565b60405180910390fd5b80600560008573ffffffffffffffffffffffffffffffffffffffff1673ffffffffffffffffffffffffffffffffffffffff16815260200190815260200160002060008473ffffffffffffffffffffffffffffffffffffffff1673ffffffffffffffffffffffffffffffffffffffff16815260200190815260200160002060006101000a81548160ff0219169083151502179055508173ffffffffffffffffffffffffffffffffffffffff168373ffffffffffffffffffffffffffffffffffffffff167f17307eab39ab6107e8899845ad3d59bd9653f200f220920489ca2b5937696c31836040516119ea919061303b565b60405180910390a3505050565b611a0284848461155d565b611a0e84848484611e3f565b611a4d576040517f08c379a0000000000000000000000000000000000000000000000000000000008152600401611a4490613098565b60405180910390fd5b50505050565b6060600d8054611a62906135b6565b80601f0160208091040260200160405190810160405280929190818152602001828054611a8e906135b6565b8015611adb5780601f10611ab057610100808354040283529160200191611adb565b820191906000526020600020905b815481529060010190602001808311611abe57829003601f168201915b5050505050905090565b60606000821415611b2d576040518060400160405280600181526020017f30000000000000000000000000000000000000000000000000000000000000008152509050611c8d565b600082905060005b60008214611b5f578080611b4890613619565b915050600a82611b58919061348e565b9150611b35565b60008167ffffffffffffffff811115611ba1577f4e487b7100000000000000000000000000000000000000000000000000000000600052604160045260246000fd5b6040519080825280601f01601f191660200182016040528015611bd35781602001600182028036833780820191505090505b5090505b60008514611c8657600182611bec91906134bf565b9150600a85611bfb9190613662565b6030611c079190613438565b60f81b818381518110611c43577f4e487b7100000000000000000000000000000000000000000000000000000000600052603260045260246000fd5b60200101907effffffffffffffffffffffffffffffffffffffffffffffffffffffffffffff1916908160001a905350600a85611c7f919061348e565b9450611bd7565b8093505050505b919050565b600081600001549050919050565b6001816000016000828254019250508190555050565b611cd0828260405180602001604052806000815250611fd6565b5050565b611cdd82611352565b611d1c576040517f08c379a0000000000000000000000000000000000000000000000000000000008152600401611d1390613278565b60405180910390fd5b80600c60008481526020019081526020016000209080519060200190611d43929190612729565b505050565b60007f80ac58cd000000000000000000000000000000000000000000000000000000007bffffffffffffffffffffffffffffffffffffffffffffffffffffffff1916827bffffffffffffffffffffffffffffffffffffffffffffffffffffffff19161480611e1357507f5b5e139f000000000000000000000000000000000000000000000000000000007bffffffffffffffffffffffffffffffffffffffffffffffffffffffff1916827bffffffffffffffffffffffffffffffffffffffffffffffffffffffff1916145b80611e235750611e2282612031565b5b9050919050565b611e3583838361209b565b505050565b505050565b6000611e608473ffffffffffffffffffffffffffffffffffffffff166121af565b15611fc9578373ffffffffffffffffffffffffffffffffffffffff1663150b7a02611e896113be565b8786866040518563ffffffff1660e01b8152600401611eab9493929190612fef565b602060405180830381600087803b158015611ec557600080fd5b505af1925050508015611ef657506040513d601f19601f82011682018060405250810190611ef39190612b3c565b60015b611f79573d8060008114611f26576040519150601f19603f3d011682016040523d82523d6000602084013e611f2b565b606091505b50600081511415611f71576040517f08c379a0000000000000000000000000000000000000000000000000000000008152600401611f6890613098565b60405180910390fd5b805181602001fd5b63150b7a0260e01b7bffffffffffffffffffffffffffffffffffffffffffffffffffffffff1916817bffffffffffffffffffffffffffffffffffffffffffffffffffffffff191614915050611fce565b600190505b949350505050565b611fe083836121d2565b611fed6000848484611e3f565b61202c576040517f08c379a000000000000000000000000000000000000000000000000000000000815260040161202390613098565b60405180910390fd5b505050565b60007f01ffc9a7000000000000000000000000000000000000000000000000000000007bffffffffffffffffffffffffffffffffffffffffffffffffffffffff1916827bffffffffffffffffffffffffffffffffffffffffffffffffffffffff1916149050919050565b6120a68383836123ac565b600073ffffffffffffffffffffffffffffffffffffffff168373ffffffffffffffffffffffffffffffffffffffff1614156120e9576120e4816123b1565b612128565b8173ffffffffffffffffffffffffffffffffffffffff168373ffffffffffffffffffffffffffffffffffffffff16146121275761212683826123fa565b5b5b600073ffffffffffffffffffffffffffffffffffffffff168273ffffffffffffffffffffffffffffffffffffffff16141561216b5761216681612567565b6121aa565b8273ffffffffffffffffffffffffffffffffffffffff168273ffffffffffffffffffffffffffffffffffffffff16146121a9576121a882826126aa565b5b5b505050565b6000808273ffffffffffffffffffffffffffffffffffffffff163b119050919050565b600073ffffffffffffffffffffffffffffffffffffffff168273ffffffffffffffffffffffffffffffffffffffff161415612242576040517f08c379a000000000000000000000000000000000000000000000000000000000815260040161223990613238565b60405180910390fd5b61224b81611352565b1561228b576040517f08c379a0000000000000000000000000000000000000000000000000000000008152600401612282906130f8565b60405180910390fd5b61229760008383611e2a565b6001600360008473ffffffffffffffffffffffffffffffffffffffff1673ffffffffffffffffffffffffffffffffffffffff16815260200190815260200160002060008282546122e79190613438565b92505081905550816002600083815260200190815260200160002060006101000a81548173ffffffffffffffffffffffffffffffffffffffff021916908373ffffffffffffffffffffffffffffffffffffffff160217905550808273ffffffffffffffffffffffffffffffffffffffff16600073ffffffffffffffffffffffffffffffffffffffff167fddf252ad1be2c89b69c2b068fc378daa952ba7f163c4a11628f55a4df523b3ef60405160405180910390a46123a860008383611e3a565b5050565b505050565b6008805490506009600083815260200190815260200160002081905550600881908060018154018082558091505060019003906000526020600020016000909190919091505550565b6000600161240784610bcc565b61241191906134bf565b90506000600760008481526020019081526020016000205490508181146124f6576000600660008673ffffffffffffffffffffffffffffffffffffffff1673ffffffffffffffffffffffffffffffffffffffff168152602001908152602001600020600084815260200190815260200160002054905080600660008773ffffffffffffffffffffffffffffffffffffffff1673ffffffffffffffffffffffffffffffffffffffff168152602001908152602001600020600084815260200190815260200160002081905550816007600083815260200190815260200160002081905550505b6007600084815260200190815260200160002060009055600660008573ffffffffffffffffffffffffffffffffffffffff1673ffffffffffffffffffffffffffffffffffffffff16815260200190815260200160002060008381526020019081526020016000206000905550505050565b6000600160088054905061257b91906134bf565b90506000600960008481526020019081526020016000205490506000600883815481106125d1577f4e487b7100000000000000000000000000000000000000000000000000000000600052603260045260246000fd5b906000526020600020015490508060088381548110612619577f4e487b7100000000000000000000000000000000000000000000000000000000600052603260045260246000fd5b90600052602060002001819055508160096000838152602001908152602001600020819055506009600085815260200190815260200160002060009055600880548061268e577f4e487b7100000000000000000000000000000000000000000000000000000000600052603160045260246000fd5b6001900381819060005260206000200160009055905550505050565b60006126b583610bcc565b905081600660008573ffffffffffffffffffffffffffffffffffffffff1673ffffffffffffffffffffffffffffffffffffffff168152602001908152602001600020600083815260200190815260200160002081905550806007600084815260200190815260200160002081905550505050565b828054612735906135b6565b90600052602060002090601f016020900481019282612757576000855561279e565b82601f1061277057805160ff191683800117855561279e565b8280016001018555821561279e579182015b8281111561279d578251825591602001919060010190612782565b5b5090506127ab91906127af565b5090565b5b808211156127c85760008160009055506001016127b0565b5090565b60006127df6127da84613393565b61336e565b9050828152602081018484840111156127f757600080fd5b612802848285613574565b509392505050565b600061281d612818846133c4565b61336e565b90508281526020810184848401111561283557600080fd5b612840848285613574565b509392505050565b60008135905061285781613d92565b92915050565b60008135905061286c81613da9565b92915050565b60008135905061288181613dc0565b92915050565b60008151905061289681613dc0565b92915050565b600082601f8301126128ad57600080fd5b81356128bd8482602086016127cc565b91505092915050565b600082601f8301126128d757600080fd5b81356128e784826020860161280a565b91505092915050565b6000813590506128ff81613dd7565b92915050565b60006020828403121561291757600080fd5b600061292584828501612848565b91505092915050565b6000806040838503121561294157600080fd5b600061294f85828601612848565b925050602061296085828601612848565b9150509250929050565b60008060006060848603121561297f57600080fd5b600061298d86828701612848565b935050602061299e86828701612848565b92505060406129af868287016128f0565b9150509250925092565b600080600080608085870312156129cf57600080fd5b60006129dd87828801612848565b94505060206129ee87828801612848565b93505060406129ff878288016128f0565b925050606085013567ffffffffffffffff811115612a1c57600080fd5b612a288782880161289c565b91505092959194509250565b60008060408385031215612a4757600080fd5b6000612a5585828601612848565b9250506020612a668582860161285d565b9150509250929050565b60008060408385031215612a8357600080fd5b6000612a9185828601612848565b9250506020612aa2858286016128f0565b9150509250929050565b600080600060608486031215612ac157600080fd5b6000612acf86828701612848565b9350506020612ae0868287016128f0565b925050604084013567ffffffffffffffff811115612afd57600080fd5b612b09868287016128c6565b9150509250925092565b600060208284031215612b2557600080fd5b6000612b3384828501612872565b91505092915050565b600060208284031215612b4e57600080fd5b6000612b5c84828501612887565b91505092915050565b600060208284031215612b7757600080fd5b600082013567ffffffffffffffff811115612b9157600080fd5b612b9d848285016128c6565b91505092915050565b600060208284031215612bb857600080fd5b6000612bc6848285016128f0565b91505092915050565b612bd8816134f3565b82525050565b612be781613505565b82525050565b6000612bf8826133f5565b612c02818561340b565b9350612c12818560208601613583565b612c1b8161374f565b840191505092915050565b6000612c3182613400565b612c3b818561341c565b9350612c4b818560208601613583565b612c548161374f565b840191505092915050565b6000612c6a82613400565b612c74818561342d565b9350612c84818560208601613583565b80840191505092915050565b6000612c9d602b8361341c565b9150612ca882613760565b604082019050919050565b6000612cc060328361341c565b9150612ccb826137af565b604082019050919050565b6000612ce360268361341c565b9150612cee826137fe565b604082019050919050565b6000612d0660258361341c565b9150612d118261384d565b604082019050919050565b6000612d29601c8361341c565b9150612d348261389c565b602082019050919050565b6000612d4c60248361341c565b9150612d57826138c5565b604082019050919050565b6000612d6f60198361341c565b9150612d7a82613914565b602082019050919050565b6000612d92602f8361341c565b9150612d9d8261393d565b604082019050919050565b6000612db560258361341c565b9150612dc08261398c565b604082019050919050565b6000612dd860218361341c565b9150612de3826139db565b604082019050919050565b6000612dfb602c8361341c565b9150612e0682613a2a565b604082019050919050565b6000612e1e60388361341c565b9150612e2982613a79565b604082019050919050565b6000612e41602a8361341c565b9150612e4c82613ac8565b604082019050919050565b6000612e6460298361341c565b9150612e6f82613b17565b604082019050919050565b6000612e8760208361341c565b9150612e9282613b66565b602082019050919050565b6000612eaa602c8361341c565b9150612eb582613b8f565b604082019050919050565b6000612ecd602c8361341c565b9150612ed882613bde565b604082019050919050565b6000612ef060208361341c565b9150612efb82613c2d565b602082019050919050565b6000612f13602f8361341c565b9150612f1e82613c56565b604082019050919050565b6000612f3660218361341c565b9150612f4182613ca5565b604082019050919050565b6000612f5960318361341c565b9150612f6482613cf4565b604082019050919050565b6000612f7c602c8361341c565b9150612f8782613d43565b604082019050919050565b612f9b8161355d565b82525050565b612faa81613567565b82525050565b6000612fbc8285612c5f565b9150612fc88284612c5f565b91508190509392505050565b6000602082019050612fe96000830184612bcf565b92915050565b60006080820190506130046000830187612bcf565b6130116020830186612bcf565b61301e6040830185612f92565b81810360608301526130308184612bed565b905095945050505050565b60006020820190506130506000830184612bde565b92915050565b600060208201905081810360008301526130708184612c26565b905092915050565b6000602082019050818103600083015261309181612c90565b9050919050565b600060208201905081810360008301526130b181612cb3565b9050919050565b600060208201905081810360008301526130d181612cd6565b9050919050565b600060208201905081810360008301526130f181612cf9565b9050919050565b6000602082019050818103600083015261311181612d1c565b9050919050565b6000602082019050818103600083015261313181612d3f565b9050919050565b6000602082019050818103600083015261315181612d62565b9050919050565b6000602082019050818103600083015261317181612d85565b9050919050565b6000602082019050818103600083015261319181612da8565b9050919050565b600060208201905081810360008301526131b181612dcb565b9050919050565b600060208201905081810360008301526131d181612dee565b9050919050565b600060208201905081810360008301526131f181612e11565b9050919050565b6000602082019050818103600083015261321181612e34565b9050919050565b6000602082019050818103600083015261323181612e57565b9050919050565b6000602082019050818103600083015261325181612e7a565b9050919050565b6000602082019050818103600083015261327181612e9d565b9050919050565b6000602082019050818103600083015261329181612ec0565b9050919050565b600060208201905081810360008301526132b181612ee3565b9050919050565b600060208201905081810360008301526132d181612f06565b9050919050565b600060208201905081810360008301526132f181612f29565b9050919050565b6000602082019050818103600083015261331181612f4c565b9050919050565b6000602082019050818103600083015261333181612f6f565b9050919050565b600060208201905061334d6000830184612f92565b92915050565b60006020820190506133686000830184612fa1565b92915050565b6000613378613389565b905061338482826135e8565b919050565b6000604051905090565b600067ffffffffffffffff8211156133ae576133ad613720565b5b6133b78261374f565b9050602081019050919050565b600067ffffffffffffffff8211156133df576133de613720565b5b6133e88261374f565b9050602081019050919050565b600081519050919050565b600081519050919050565b600082825260208201905092915050565b600082825260208201905092915050565b600081905092915050565b60006134438261355d565b915061344e8361355d565b9250827fffffffffffffffffffffffffffffffffffffffffffffffffffffffffffffffff0382111561348357613482613693565b5b828201905092915050565b60006134998261355d565b91506134a48361355d565b9250826134b4576134b36136c2565b5b828204905092915050565b60006134ca8261355d565b91506134d58361355d565b9250828210156134e8576134e7613693565b5b828203905092915050565b60006134fe8261353d565b9050919050565b60008115159050919050565b60007fffffffff0000000000000000000000000000000000000000000000000000000082169050919050565b600073ffffffffffffffffffffffffffffffffffffffff82169050919050565b6000819050919050565b600060ff82169050919050565b82818337600083830152505050565b60005b838110156135a1578082015181840152602081019050613586565b838111156135b0576000848401525b50505050565b600060028204905060018216806135ce57607f821691505b602082108114156135e2576135e16136f1565b5b50919050565b6135f18261374f565b810181811067ffffffffffffffff821117156136105761360f613720565b5b80604052505050565b60006136248261355d565b91507fffffffffffffffffffffffffffffffffffffffffffffffffffffffffffffffff82141561365757613656613693565b5b600182019050919050565b600061366d8261355d565b91506136788361355d565b925082613688576136876136c2565b5b828206905092915050565b7f4e487b7100000000000000000000000000000000000000000000000000000000600052601160045260246000fd5b7f4e487b7100000000000000000000000000000000000000000000000000000000600052601260045260246000fd5b7f4e487b7100000000000000000000000000000000000000000000000000000000600052602260045260246000fd5b7f4e487b7100000000000000000000000000000000000000000000000000000000600052604160045260246000fd5b6000601f19601f8301169050919050565b7f455243373231456e756d657261626c653a206f776e657220696e646578206f7560008201527f74206f6620626f756e6473000000000000000000000000000000000000000000602082015250565b7f4552433732313a207472616e7366657220746f206e6f6e20455243373231526560008201527f63656976657220696d706c656d656e7465720000000000000000000000000000602082015250565b7f4f776e61626c653a206e6577206f776e657220697320746865207a65726f206160008201527f6464726573730000000000000000000000000000000000000000000000000000602082015250565b7f4552433732313a207472616e736665722066726f6d20696e636f72726563742060008201527f6f776e6572000000000000000000000000000000000000000000000000000000602082015250565b7f4552433732313a20746f6b656e20616c7265616479206d696e74656400000000600082015250565b7f4552433732313a207472616e7366657220746f20746865207a65726f2061646460008201527f7265737300000000000000000000000000000000000000000000000000000000602082015250565b7f4552433732313a20617070726f766520746f2063616c6c657200000000000000600082015250565b7f4665652076616c7565206d757374206e6f74206265206c657373207468616e2060008201527f6f7220657175616c20746f203020210000000000000000000000000000000000602082015250565b7f4d6178206c696d697420666f7220546f6b656e7320616c7265616479206d696e60008201527f7465642021000000000000000000000000000000000000000000000000000000602082015250565b7f4e6f7420656e6f756768204554482c20636865636b207468652070726963652060008201527f2100000000000000000000000000000000000000000000000000000000000000602082015250565b7f4552433732313a206f70657261746f7220717565727920666f72206e6f6e657860008201527f697374656e7420746f6b656e0000000000000000000000000000000000000000602082015250565b7f4552433732313a20617070726f76652063616c6c6572206973206e6f74206f7760008201527f6e6572206e6f7220617070726f76656420666f7220616c6c0000000000000000602082015250565b7f4552433732313a2062616c616e636520717565727920666f7220746865207a6560008201527f726f206164647265737300000000000000000000000000000000000000000000602082015250565b7f4552433732313a206f776e657220717565727920666f72206e6f6e657869737460008201527f656e7420746f6b656e0000000000000000000000000000000000000000000000602082015250565b7f4552433732313a206d696e7420746f20746865207a65726f2061646472657373600082015250565b7f4552433732313a20617070726f76656420717565727920666f72206e6f6e657860008201527f697374656e7420746f6b656e0000000000000000000000000000000000000000602082015250565b7f4552433732314d657461646174613a2055524920736574206f66206e6f6e657860008201527f697374656e7420746f6b656e0000000000000000000000000000000000000000602082015250565b7f4f776e61626c653a2063616c6c6572206973206e6f7420746865206f776e6572600082015250565b7f4552433732314d657461646174613a2055524920717565727920666f72206e6f60008201527f6e6578697374656e7420746f6b656e0000000000000000000000000000000000602082015250565b7f4552433732313a20617070726f76616c20746f2063757272656e74206f776e6560008201527f7200000000000000000000000000000000000000000000000000000000000000602082015250565b7f4552433732313a207472616e736665722063616c6c6572206973206e6f74206f60008201527f776e6572206e6f7220617070726f766564000000000000000000000000000000602082015250565b7f455243373231456e756d657261626c653a20676c6f62616c20696e646578206f60008201527f7574206f6620626f756e64730000000000000000000000000000000000000000602082015250565b613d9b816134f3565b8114613da657600080fd5b50565b613db281613505565b8114613dbd57600080fd5b50565b613dc981613511565b8114613dd457600080fd5b50565b613de08161355d565b8114613deb57600080fd5b5056fea2646970667358221220d524881b1486b18d7629fe14d562cbe490206b299c57fd7620d39d919036288b64736f6c63430008040033",
  "linkReferences": {},
  "deployedLinkReferences": {}
}